{
  "_format": "hh-sol-artifact-1",
  "contractName": "FarmGenerator",
  "sourceName": "contracts/FarmGenerator.sol",
  "abi": [
    {
      "inputs": [
        {
          "internalType": "contract IFactory",
          "name": "_factory",
          "type": "address"
        },
        {
          "internalType": "contract IUniFactory",
          "name": "_uniswapFactory",
          "type": "address"
        },
        {
          "internalType": "contract IUniswapV3Factory",
          "name": "_uniswapFactoryV3",
          "type": "address"
        }
      ],
      "stateMutability": "nonpayable",
      "type": "constructor"
    },
    {
      "anonymous": false,
      "inputs": [
        {
          "indexed": true,
          "internalType": "address",
          "name": "previousOwner",
          "type": "address"
        },
        {
          "indexed": true,
          "internalType": "address",
          "name": "newOwner",
          "type": "address"
        }
      ],
      "name": "OwnershipTransferred",
      "type": "event"
    },
    {
      "inputs": [
        {
          "internalType": "contract IERC20",
          "name": "_rewardToken",
          "type": "address"
        },
        {
          "internalType": "uint256",
          "name": "_amount",
          "type": "uint256"
        },
        {
          "internalType": "contract IERC20",
          "name": "_lpToken",
          "type": "address"
        },
        {
          "internalType": "uint256",
          "name": "_blockReward",
          "type": "uint256"
        },
        {
          "internalType": "uint256",
          "name": "_startBlock",
          "type": "uint256"
        },
        {
          "internalType": "uint256",
          "name": "_bonusEndBlock",
          "type": "uint256"
        },
        {
          "internalType": "uint256",
          "name": "_bonus",
          "type": "uint256"
        },
        {
          "internalType": "uint256",
          "name": "_lockPeriod",
          "type": "uint256"
        },
        {
          "internalType": "bool",
          "name": "_referral",
          "type": "bool"
        }
      ],
      "name": "createFarmV2",
      "outputs": [
        {
          "internalType": "address",
          "name": "",
          "type": "address"
        }
      ],
      "stateMutability": "nonpayable",
      "type": "function"
    },
    {
      "inputs": [
        {
          "internalType": "uint256",
          "name": "_amount",
          "type": "uint256"
        },
        {
          "internalType": "uint256",
          "name": "_startBlock",
          "type": "uint256"
        },
        {
          "internalType": "uint256",
          "name": "_bonusEndBlock",
          "type": "uint256"
        },
        {
          "internalType": "uint256",
          "name": "_bonus",
          "type": "uint256"
        },
        {
          "internalType": "uint256",
          "name": "_endBlock",
          "type": "uint256"
        }
      ],
      "name": "determineBlockReward",
      "outputs": [
        {
          "internalType": "uint256",
          "name": "",
          "type": "uint256"
        },
        {
          "internalType": "uint256",
          "name": "",
          "type": "uint256"
        },
        {
          "internalType": "uint256",
          "name": "",
          "type": "uint256"
        }
      ],
      "stateMutability": "view",
      "type": "function"
    },
    {
      "inputs": [
        {
          "internalType": "uint256",
          "name": "_amount",
          "type": "uint256"
        },
        {
          "internalType": "uint256",
          "name": "_blockReward",
          "type": "uint256"
        },
        {
          "internalType": "uint256",
          "name": "_startBlock",
          "type": "uint256"
        },
        {
          "internalType": "uint256",
          "name": "_bonusEndBlock",
          "type": "uint256"
        },
        {
          "internalType": "uint256",
          "name": "_bonus",
          "type": "uint256"
        },
        {
          "internalType": "bool",
          "name": "_referral",
          "type": "bool"
        }
      ],
      "name": "determineEndBlock",
      "outputs": [
        {
          "internalType": "uint256",
          "name": "",
          "type": "uint256"
        },
        {
          "internalType": "uint256",
          "name": "",
          "type": "uint256"
        },
        {
          "internalType": "uint256",
          "name": "",
          "type": "uint256"
        }
      ],
      "stateMutability": "view",
      "type": "function"
    },
    {
      "inputs": [],
      "name": "factory",
      "outputs": [
        {
          "internalType": "contract IFactory",
          "name": "",
          "type": "address"
        }
      ],
      "stateMutability": "view",
      "type": "function"
    },
    {
      "inputs": [],
      "name": "gFees",
      "outputs": [
        {
          "internalType": "contract IERCBurn",
          "name": "gasToken",
          "type": "address"
        },
        {
          "internalType": "bool",
          "name": "useGasToken",
          "type": "bool"
        },
        {
          "internalType": "uint256",
          "name": "gasFee",
          "type": "uint256"
        },
        {
          "internalType": "uint256",
          "name": "ethFee",
          "type": "uint256"
        },
        {
          "internalType": "uint256",
          "name": "tokenFee",
          "type": "uint256"
        },
        {
          "internalType": "uint256",
          "name": "referralFee",
          "type": "uint256"
        }
      ],
      "stateMutability": "view",
      "type": "function"
    },
    {
      "inputs": [],
      "name": "owner",
      "outputs": [
        {
          "internalType": "address",
          "name": "",
          "type": "address"
        }
      ],
      "stateMutability": "view",
      "type": "function"
    },
    {
      "inputs": [],
      "name": "renounceOwnership",
      "outputs": [],
      "stateMutability": "nonpayable",
      "type": "function"
    },
    {
      "inputs": [
        {
          "internalType": "address payable",
          "name": "_devaddr",
          "type": "address"
        }
      ],
      "name": "setDev",
      "outputs": [],
      "stateMutability": "nonpayable",
      "type": "function"
    },
    {
      "inputs": [
        {
          "internalType": "uint256",
          "name": "_amount",
          "type": "uint256"
        }
      ],
      "name": "setEthFee",
      "outputs": [],
      "stateMutability": "nonpayable",
      "type": "function"
    },
    {
      "inputs": [
        {
          "internalType": "uint256",
          "name": "_amount",
          "type": "uint256"
        }
      ],
      "name": "setGasFee",
      "outputs": [],
      "stateMutability": "nonpayable",
      "type": "function"
    },
    {
      "inputs": [
        {
          "internalType": "contract IERCBurn",
          "name": "_gasToken",
          "type": "address"
        }
      ],
      "name": "setGasToken",
      "outputs": [],
      "stateMutability": "nonpayable",
      "type": "function"
    },
    {
      "inputs": [
        {
          "internalType": "bool",
          "name": "_useGasToken",
          "type": "bool"
        }
      ],
      "name": "setRequireGasToken",
      "outputs": [],
      "stateMutability": "nonpayable",
      "type": "function"
    },
    {
      "inputs": [
        {
          "internalType": "uint256",
          "name": "_amount",
          "type": "uint256"
        }
      ],
      "name": "setTokenFee",
      "outputs": [],
      "stateMutability": "nonpayable",
      "type": "function"
    },
    {
      "inputs": [
        {
          "internalType": "address",
          "name": "newOwner",
          "type": "address"
        }
      ],
      "name": "transferOwnership",
      "outputs": [],
      "stateMutability": "nonpayable",
      "type": "function"
    },
    {
      "inputs": [],
      "name": "uniswapFactory",
      "outputs": [
        {
          "internalType": "contract IUniFactory",
          "name": "",
          "type": "address"
        }
      ],
      "stateMutability": "view",
      "type": "function"
    },
    {
      "inputs": [],
      "name": "uniswapFactoryV3",
      "outputs": [
        {
          "internalType": "contract IUniswapV3Factory",
          "name": "",
          "type": "address"
        }
      ],
      "stateMutability": "view",
      "type": "function"
    }
  ],
  "bytecode": "0x608060405234801561001057600080fd5b506040516200256238038062002562833981016040819052610031916100f8565b61003a33610090565b600180546001600160a01b039485166001600160a01b031991821617909155600480548216331790556032600855600280549385169382169390931790925560038054919093169116179055600a600955610145565b600080546001600160a01b038381166001600160a01b0319831681178455604051919092169283917f8be0079c531659141344cd1fd0a4f28419497f9722a3daafe3b4186f6b6457e09190a35050565b6001600160a01b03811681146100f557600080fd5b50565b60008060006060848603121561010d57600080fd5b8351610118816100e0565b6020850151909350610129816100e0565b604085015190925061013a816100e0565b809150509250925092565b61240d80620001556000396000f3fe608060405234801561001057600080fd5b50600436106101005760003560e01c80638bdb2afa11610097578063c45a015511610066578063c45a01551461026b578063d477f05f1461027e578063f2eb6b5f14610291578063f2fde38b146102a457600080fd5b80638bdb2afa146101cc5780638c40b590146101df5780638da5cb5b146101f257806390e1a0031461020357600080fd5b8063678edca3116100d3578063678edca314610170578063715018a61461018357806381f468391461018b5780638251c5c3146101b957600080fd5b80631e9f8aad1461010557806331b31b881461011a5780633f6738a91461012d5780635cd3773914610140575b600080fd5b610118610113366004610dba565b6102b7565b005b610118610128366004610dd7565b6102e1565b61011861013b366004610dd7565b6102ee565b600354610153906001600160a01b031681565b6040516001600160a01b0390911681526020015b60405180910390f35b61011861017e366004610dd7565b6102fb565b610118610308565b61019e610199366004610dfe565b61031c565b60408051938452602084019290925290820152606001610167565b6101536101c7366004610e53565b61046d565b600254610153906001600160a01b031681565b61019e6101ed366004610ed9565b610aec565b6000546001600160a01b0316610153565b600554600654600754600854600954610234946001600160a01b03811694600160a01b90910460ff16939092909186565b604080516001600160a01b0390971687529415156020870152938501929092526060840152608083015260a082015260c001610167565b600154610153906001600160a01b031681565b61011861028c366004610dba565b610ba2565b61011861029f366004610f14565b610bcc565b6101186102b2366004610dba565b610bf2565b6102bf610c6b565b600580546001600160a01b0319166001600160a01b0392909216919091179055565b6102e9610c6b565b600855565b6102f6610c6b565b600755565b610303610c6b565b600655565b610310610c6b565b61031a6000610cc5565b565b6000806000610329610d4c565b600854610345906103e89061033f908d90610d15565b90610d28565b808252610353908b90610d34565b60208201526103628789610d34565b6040820181905261037f908a906103799089610d15565b90610d15565b60608201819052602082015161039a918b9161033f91610d34565b6080820181905260408201516103bc918a916103b69190610d40565b90610d40565b60a082018190526000906103d09089610d34565b905060006103ef826103b68a8660400151610d1590919063ffffffff16565b905060006103fd8c83610d15565b9050871561043d5760a0840151600954600854839161042e916103e89161033f9161042791610d34565b8690610d15565b96509650965050505050610461565b8360a001518161042e6103e861033f60056003015486610d1590919063ffffffff16565b96509650969350505050565b60004386116104ab5760405162461bcd60e51b815260206004820152600560248201526414d510549560da1b60448201526064015b60405180910390fd5b600084116104e35760405162461bcd60e51b8152602060048201526005602482015264424f4e555360d81b60448201526064016104a2565b6001600160a01b038a166105215760405162461bcd60e51b81526020600482015260056024820152642a27a5a2a760d91b60448201526064016104a2565b6103e887116105575760405162461bcd60e51b8152602060048201526002602482015261212960f11b60448201526064016104a2565b60025460408051630dfe168160e01b815290518a926000926001600160a01b039182169263e6a4390592861691630dfe1681916004808301926020929190829003018186803b1580156105a957600080fd5b505afa1580156105bd573d6000803e3d6000fd5b505050506040513d601f19601f820116820180604052508101906105e19190610f31565b846001600160a01b031663d21220a76040518163ffffffff1660e01b815260040160206040518083038186803b15801561061a57600080fd5b505afa15801561062e573d6000803e3d6000fd5b505050506040513d601f19601f820116820180604052508101906106529190610f31565b6040516001600160e01b031960e085901b1681526001600160a01b0392831660048201529116602482015260440160206040518083038186803b15801561069857600080fd5b505afa1580156106ac573d6000803e3d6000fd5b505050506040513d601f19601f820116820180604052508101906106d09190610f31565b9050896001600160a01b0316816001600160a01b0316146107335760405162461bcd60e51b815260206004820152601b60248201527f546869732070616972206973206e6f74206f6e20756e6973776170000000000060448201526064016104a2565b61073b610d4c565b6107498c8b8b8b8b8a61031c565b60e0840181905260c084019190915260a0830191909152600480546040516323b872dd60e01b815233928101929092526001600160a01b0390811660248301526044820192909252908e16906323b872dd90606401602060405180830381600087803b1580156107b857600080fd5b505af11580156107cc573d6000803e3d6000fd5b505050506040513d601f19601f820116820180604052508101906107f09190610f4e565b506001546040516000916001600160a01b031690309061080f90610d98565b6001600160a01b03928316815291166020820152604001604051809103906000f080158015610842573d6000803e3d6000fd5b5060c08301516040516323b872dd60e01b81523360048201526001600160a01b03808416602483015260448201929092529192508f16906323b872dd90606401602060405180830381600087803b15801561089c57600080fd5b505af11580156108b0573d6000803e3d6000fd5b505050506040513d601f19601f820116820180604052508101906108d49190610f4e565b6109195760405162461bcd60e51b81526020600482015260166024820152752a37b5b2b7103a3930b739b332b9103330b4b632b21760511b60448201526064016104a2565b61098f60405180610180016040528060006001600160a01b0316815260200160006001600160a01b03168152602001600081526020016000815260200160008152602001600081526020016000815260200160008152602001600081526020016000815260200160008152602001600081525090565b8e81602001906001600160a01b031690816001600160a01b0316815250508260c00151816101200181815250508c81600001906001600160a01b031690816001600160a01b0316815250508b8160600181815250508a8160400181815250508260a001518160c001818152505089816080018181525050888160a00181815250508781610160018181525050816001600160a01b0316638db2e968826040518263ffffffff1660e01b8152600401610a479190610f6b565b600060405180830381600087803b158015610a6157600080fd5b505af1158015610a75573d6000803e3d6000fd5b505060015460405163edcd5d1760e01b81526001600160a01b038681166004830152909116925063edcd5d179150602401600060405180830381600087803b158015610ac057600080fd5b505af1158015610ad4573d6000803e3d6000fd5b50939750505050505050509998505050505050505050565b600080600080610b106103e861033f6005600301548c610d1590919063ffffffff16565b90506000610b1e8a83610d34565b90506000610b2c898b610d34565b90506000610b3a888b610d34565b90506000610b4c826103b6858d610d15565b90506000610b5a8583610d28565b90506000610b688284610d15565b90508181610b8a6103e861033f60056003015486610d1590919063ffffffff16565b99509950995050505050505050955095509592505050565b610baa610c6b565b600480546001600160a01b0319166001600160a01b0392909216919091179055565b610bd4610c6b565b60058054911515600160a01b0260ff60a01b19909216919091179055565b610bfa610c6b565b6001600160a01b038116610c5f5760405162461bcd60e51b815260206004820152602660248201527f4f776e61626c653a206e6577206f776e657220697320746865207a65726f206160448201526564647265737360d01b60648201526084016104a2565b610c6881610cc5565b50565b6000546001600160a01b0316331461031a5760405162461bcd60e51b815260206004820181905260248201527f4f776e61626c653a2063616c6c6572206973206e6f7420746865206f776e657260448201526064016104a2565b600080546001600160a01b038381166001600160a01b0319831681178455604051919092169283917f8be0079c531659141344cd1fd0a4f28419497f9722a3daafe3b4186f6b6457e09190a35050565b6000610d218284611020565b9392505050565b6000610d21828461103f565b6000610d218284611061565b6000610d218284611078565b6040518061012001604052806000815260200160008152602001600081526020016000815260200160008152602001600081526020016000815260200160008152602001600081525090565b6113478061109183390190565b6001600160a01b0381168114610c6857600080fd5b600060208284031215610dcc57600080fd5b8135610d2181610da5565b600060208284031215610de957600080fd5b5035919050565b8015158114610c6857600080fd5b60008060008060008060c08789031215610e1757600080fd5b863595506020870135945060408701359350606087013592506080870135915060a0870135610e4581610df0565b809150509295509295509295565b60008060008060008060008060006101208a8c031215610e7257600080fd5b8935610e7d81610da5565b985060208a0135975060408a0135610e9481610da5565b965060608a0135955060808a0135945060a08a0135935060c08a0135925060e08a013591506101008a0135610ec881610df0565b809150509295985092959850929598565b600080600080600060a08688031215610ef157600080fd5b505083359560208501359550604085013594606081013594506080013592509050565b600060208284031215610f2657600080fd5b8135610d2181610df0565b600060208284031215610f4357600080fd5b8151610d2181610da5565b600060208284031215610f6057600080fd5b8151610d2181610df0565b81516001600160a01b0316815261018081016020830151610f9760208401826001600160a01b03169052565b5060408301516040830152606083015160608301526080830151608083015260a083015160a083015260c083015160c083015260e083015160e083015261010080840151818401525061012080840151818401525061014080840151818401525061016080840151818401525092915050565b634e487b7160e01b600052601160045260246000fd5b600081600019048311821515161561103a5761103a61100a565b500290565b60008261105c57634e487b7160e01b600052601260045260246000fd5b500490565b6000828210156110735761107361100a565b500390565b6000821982111561108b5761108b61100a565b50019056fe608060405234801561001057600080fd5b5060405161134738038061134783398101604081905261002f9161007c565b600080546001600160a01b039384166001600160a01b031991821617909155600180549290931691161790556100af565b80516001600160a01b038116811461007757600080fd5b919050565b6000806040838503121561008f57600080fd5b61009883610060565b91506100a660208401610060565b90509250929050565b611289806100be6000396000f3fe608060405234801561001057600080fd5b50600436106100b45760003560e01c8063b6b55f2511610071578063b6b55f251461022d578063c45a015514610240578063db2e21bc14610253578063dd4670641461025b578063e3161ddd1461027e578063f40f0f521461028657600080fd5b80631959a002146100b95780631d49d66c146101135780632dd99996146101b95780632e1a7d4d146101e45780638db2e968146101f95780638dbb1e3a1461020c575b600080fd5b6100ee6100c7366004610f98565b600e6020526000908152604090208054600182015460028301546003909301549192909184565b6040805194855260208501939093529183015260608201526080015b60405180910390f35b600254600354600454600554600654600754600854600954600a54600b54600c54600d546101559b6001600160a01b039081169b16999897969594939291908c565b604080516001600160a01b039d8e1681529c909b1660208d0152998b019890985260608a0196909652608089019490945260a088019290925260c087015260e08601526101008501526101208401526101408301526101608201526101800161010a565b6001546101cc906001600160a01b031681565b6040516001600160a01b03909116815260200161010a565b6101f76101f2366004610fb5565b610299565b005b6101f7610207366004611016565b6104d0565b61021f61021a3660046110c3565b6105b6565b60405190815260200161010a565b6101f761023b366004610fb5565b61065b565b6000546101cc906001600160a01b031681565b6101f76107c8565b6101f7610269366004610fb5565b336000908152600e6020526040902060020155565b6101f76108b0565b61021f610294366004610f98565b6109bb565b336000908152600e6020526040902080548211156102ed5760405162461bcd60e51b815260206004820152600c60248201526b125394d551919250d251539560a21b60448201526064015b60405180910390fd5b428160030154826002015461030291906110fb565b11156103505760405162461bcd60e51b815260206004820152601760248201527f596f752063616e2774207769746864726177206e6f772e00000000000000000060448201526064016102e4565b6103586108b0565b8054821480156103685750600082115b156103e157600054604051631db2c95560e21b81523360048201526001600160a01b03909116906376cb255490602401600060405180830381600087803b1580156103b257600080fd5b505af11580156103c6573d6000803e3d6000fd5b5050600c80549250905060006103db83611113565b91905055505b600061041c826001015461041664e8d4a510006104106002600801548760000154610b0a90919063ffffffff16565b90610b1d565b90610b29565b60028301549091501561044957600d5460028301546104469161043f9190610b1d565b8290610b0a565b90505b6104533382610b35565b815461045f9084610b29565b808355600a5461047a9164e8d4a51000916104109190610b0a565b6001830155600254610496906001600160a01b03163385610c86565b60405183815233907f884edad9ce6fa2440d8a54cc123490eb96d2768479d49ff9c7366125a94243649060200160405180910390a2505050565b6001546001600160a01b031633146105165760405162461bcd60e51b81526020600482015260096024820152682327a92124a22222a760b91b60448201526064016102e4565b6020810151600380546001600160a01b0319166001600160a01b03909216919091179055604081015160048190556060820151600555608082015160065560a0820151600755600090431161056f578160400151610571565b435b8251600280546001600160a01b0319166001600160a01b03909216919091179055600955506000600a5560c0810151600855610120810151600b556101600151600d55565b60008060028001548410156105cd576004546105cf565b835b9050600083600260060154116105e7576008546105e9565b835b60065490915081116106155760075461060c906106068385610b29565b90610b0a565b92505050610655565b60065482106106285761060c8183610b29565b60065461060c9061063a908390610b29565b60075460065461064f91906106069087610b29565b90610ce9565b92915050565b336000908152600e602052604090206106726108b0565b8054156106b65760006106a8826001015461041664e8d4a510006104106002600801548760000154610b0a90919063ffffffff16565b90506106b43382610b35565b505b80541580156106c55750600082115b1561073e576000546040516379cdf99b60e01b81523360048201526001600160a01b03909116906379cdf99b90602401600060405180830381600087803b15801561070f57600080fd5b505af1158015610723573d6000803e3d6000fd5b5050600c80549250905060006107388361112a565b91905055505b600254610756906001600160a01b0316333085610cf5565b80546107629083610ce9565b808255600a5461077d9164e8d4a51000916104109190610b0a565b60018201556000600282015542600382015560405182815233907fe1fffcc4923d04b559f4d29a8bfc6cda04eb5b0d3c460751c2402c5c5cc9109c9060200160405180910390a25050565b336000818152600e60205260409020805460025491926107f1926001600160a01b031691610c86565b805460405190815233907f5fafa99d0643513820be26656b45130b01e1c03062e1266bf36f88cbd3bd96959060200160405180910390a28054156108a357600054604051631db2c95560e21b81523360048201526001600160a01b03909116906376cb255490602401600060405180830381600087803b15801561087457600080fd5b505af1158015610888573d6000803e3d6000fd5b5050600c805492509050600061089d83611113565b91905055505b6000808255600190910155565b60095443116108bb57565b6002546040516370a0823160e01b81523060048201526000916001600160a01b0316906370a082319060240160206040518083038186803b1580156108ff57600080fd5b505afa158015610913573d6000803e3d6000fd5b505050506040513d601f19601f820116820180604052508101906109379190611145565b90508061095757600854431061094f57600854610951565b435b60095550565b6000610968600260070154436105b6565b60055490915060009061097c908390610b0a565b905061099d610994846104108464e8d4a51000610b0a565b600a5490610ce9565b600a5560085443106109b1576008546109b3565b435b600955505050565b6001600160a01b038181166000908152600e6020526040808220600a5460025492516370a0823160e01b8152306004820152939491939092859216906370a082319060240160206040518083038186803b158015610a1857600080fd5b505afa158015610a2c573d6000803e3d6000fd5b505050506040513d601f19601f82011682018060405250810190610a509190611145565b60095490915043118015610a6357508015155b15610ab1576000610a79600260070154436105b6565b600554909150600090610a8d908390610b0a565b9050610aac610aa5846104108464e8d4a51000610b0a565b8590610ce9565b935050505b6000610adb846001015461041664e8d4a51000610410878960000154610b0a90919063ffffffff16565b600285015490915015610b0157600d546002850154610afe9161043f9190610b1d565b90505b95945050505050565b6000610b16828461115e565b9392505050565b6000610b16828461117d565b6000610b16828461119f565b6003546040516370a0823160e01b81523060048201526000916001600160a01b0316906370a082319060240160206040518083038186803b158015610b7957600080fd5b505afa158015610b8d573d6000803e3d6000fd5b505050506040513d601f19601f82011682018060405250810190610bb19190611145565b905080821115610c485760035460405163a9059cbb60e01b81526001600160a01b038581166004830152602482018490529091169063a9059cbb906044015b602060405180830381600087803b158015610c0a57600080fd5b505af1158015610c1e573d6000803e3d6000fd5b505050506040513d601f19601f82011682018060405250810190610c4291906111b6565b50505050565b60035460405163a9059cbb60e01b81526001600160a01b038581166004830152602482018590529091169063a9059cbb90604401610bf0565b505050565b6040516001600160a01b038316602482015260448101829052610c8190849063a9059cbb60e01b906064015b60408051601f198184030181529190526020810180516001600160e01b03166001600160e01b031990931692909217909152610d2d565b6000610b1682846110fb565b6040516001600160a01b0380851660248301528316604482015260648101829052610c429085906323b872dd60e01b90608401610cb2565b6000610d82826040518060400160405280602081526020017f5361666545524332303a206c6f772d6c6576656c2063616c6c206661696c6564815250856001600160a01b0316610dff9092919063ffffffff16565b805190915015610c815780806020019051810190610da091906111b6565b610c815760405162461bcd60e51b815260206004820152602a60248201527f5361666545524332303a204552433230206f7065726174696f6e20646964206e6044820152691bdd081cdd58d8d9595960b21b60648201526084016102e4565b6060610e0e8484600085610e16565b949350505050565b606082471015610e775760405162461bcd60e51b815260206004820152602660248201527f416464726573733a20696e73756666696369656e742062616c616e636520666f6044820152651c8818d85b1b60d21b60648201526084016102e4565b6001600160a01b0385163b610ece5760405162461bcd60e51b815260206004820152601d60248201527f416464726573733a2063616c6c20746f206e6f6e2d636f6e747261637400000060448201526064016102e4565b600080866001600160a01b03168587604051610eea9190611204565b60006040518083038185875af1925050503d8060008114610f27576040519150601f19603f3d011682016040523d82523d6000602084013e610f2c565b606091505b5091509150610f3c828286610f47565b979650505050505050565b60608315610f56575081610b16565b825115610f665782518084602001fd5b8160405162461bcd60e51b81526004016102e49190611220565b6001600160a01b0381168114610f9557600080fd5b50565b600060208284031215610faa57600080fd5b8135610b1681610f80565b600060208284031215610fc757600080fd5b5035919050565b604051610180810167ffffffffffffffff8111828210171561100057634e487b7160e01b600052604160045260246000fd5b60405290565b803561101181610f80565b919050565b6000610180828403121561102957600080fd5b611031610fce565b61103a83611006565b815261104860208401611006565b602082015260408301356040820152606083013560608201526080830135608082015260a083013560a082015260c083013560c082015260e083013560e08201526101008084013581830152506101208084013581830152506101408084013581830152506101608084013581830152508091505092915050565b600080604083850312156110d657600080fd5b50508035926020909101359150565b634e487b7160e01b600052601160045260246000fd5b6000821982111561110e5761110e6110e5565b500190565b600081611122576111226110e5565b506000190190565b600060001982141561113e5761113e6110e5565b5060010190565b60006020828403121561115757600080fd5b5051919050565b6000816000190483118215151615611178576111786110e5565b500290565b60008261119a57634e487b7160e01b600052601260045260246000fd5b500490565b6000828210156111b1576111b16110e5565b500390565b6000602082840312156111c857600080fd5b81518015158114610b1657600080fd5b60005b838110156111f35781810151838201526020016111db565b83811115610c425750506000910152565b600082516112168184602087016111d8565b9190910192915050565b602081526000825180602084015261123f8160408501602087016111d8565b601f01601f1916919091016040019291505056fea264697066735822122076a822cba95d0f2842953da1127ad6b5c7813fc9a4998dbe9934036d3ad6828b64736f6c63430008090033a26469706673582212206c360272fc97b59b7255659087b175097dd3a463b5d8e5575b88ecaef2e835ce64736f6c63430008090033",
  "linkReferences": {},
  "deployedLinkReferences": {}
}