{
  "_format": "hh-sol-artifact-1",
  "contractName": "PoolGenerator",
  "sourceName": "contracts/PoolGenerator.sol",
  "abi": [
    {
      "inputs": [
        {
          "internalType": "contract IPoolFactory",
          "name": "_factory",
          "type": "address"
        },
        {
          "internalType": "address",
          "name": "_devAddr",
          "type": "address"
        }
      ],
      "stateMutability": "nonpayable",
      "type": "constructor"
    },
    {
      "anonymous": false,
      "inputs": [
        {
          "indexed": true,
          "internalType": "address",
          "name": "previousOwner",
          "type": "address"
        },
        {
          "indexed": true,
          "internalType": "address",
          "name": "newOwner",
          "type": "address"
        }
      ],
      "name": "OwnershipTransferred",
      "type": "event"
    },
    {
      "inputs": [
        {
          "internalType": "address",
          "name": "_rewardToken",
          "type": "address"
        },
        {
          "internalType": "address",
          "name": "_lpToken",
          "type": "address"
        },
        {
          "internalType": "uint256",
          "name": "_aprPercent",
          "type": "uint256"
        },
        {
          "internalType": "uint256",
          "name": "_amount",
          "type": "uint256"
        }
      ],
      "name": "createPool",
      "outputs": [
        {
          "internalType": "address",
          "name": "",
          "type": "address"
        }
      ],
      "stateMutability": "nonpayable",
      "type": "function"
    },
    {
      "inputs": [],
      "name": "devAddr",
      "outputs": [
        {
          "internalType": "address",
          "name": "",
          "type": "address"
        }
      ],
      "stateMutability": "view",
      "type": "function"
    },
    {
      "inputs": [],
      "name": "factory",
      "outputs": [
        {
          "internalType": "contract IPoolFactory",
          "name": "",
          "type": "address"
        }
      ],
      "stateMutability": "view",
      "type": "function"
    },
    {
      "inputs": [],
      "name": "fee",
      "outputs": [
        {
          "internalType": "uint256",
          "name": "",
          "type": "uint256"
        }
      ],
      "stateMutability": "view",
      "type": "function"
    },
    {
      "inputs": [],
      "name": "owner",
      "outputs": [
        {
          "internalType": "address",
          "name": "",
          "type": "address"
        }
      ],
      "stateMutability": "view",
      "type": "function"
    },
    {
      "inputs": [],
      "name": "renounceOwnership",
      "outputs": [],
      "stateMutability": "nonpayable",
      "type": "function"
    },
    {
      "inputs": [
        {
          "internalType": "address",
          "name": "newOwner",
          "type": "address"
        }
      ],
      "name": "transferOwnership",
      "outputs": [],
      "stateMutability": "nonpayable",
      "type": "function"
    }
  ],
  "bytecode": "0x6080604052603260035534801561001557600080fd5b50604051611406380380611406833981016040819052610034916100d6565b61003d3361006e565b600180546001600160a01b039384166001600160a01b03199182161790915560028054929093169116179055610110565b600080546001600160a01b038381166001600160a01b0319831681178455604051919092169283917f8be0079c531659141344cd1fd0a4f28419497f9722a3daafe3b4186f6b6457e09190a35050565b6001600160a01b03811681146100d357600080fd5b50565b600080604083850312156100e957600080fd5b82516100f4816100be565b6020840151909250610105816100be565b809150509250929050565b6112e78061011f6000396000f3fe608060405234801561001057600080fd5b506004361061007d5760003560e01c8063c45a01551161005b578063c45a0155146100cd578063da09c72c146100e0578063ddca3f43146100f3578063f2fde38b1461010a57600080fd5b8063715018a614610082578063884db0631461008c5780638da5cb5b146100bc575b600080fd5b61008a61011d565b005b61009f61009a36600461067d565b610131565b6040516001600160a01b0390911681526020015b60405180910390f35b6000546001600160a01b031661009f565b60015461009f906001600160a01b031681565b60025461009f906001600160a01b031681565b6100fc60035481565b6040519081526020016100b3565b61008a6101183660046106bf565b610255565b6101256102d3565b61012f600061032d565b565b6000808486338660405161014490610654565b6001600160a01b0394851681529284166020840152921660408201526060810191909152608001604051809103906000f080158015610187573d6000803e3d6000fd5b506002546003549192506101cc9133916001600160a01b0316906101ba906103e8906101b490899061037d565b90610390565b6001600160a01b038a1692919061039c565b6101ec33826101ba6103e86101b46003548961037d90919063ffffffff16565b6001546040516355ec842360e11b81526001600160a01b0383811660048301529091169063abd9084690602401600060405180830381600087803b15801561023357600080fd5b505af1158015610247573d6000803e3d6000fd5b509298975050505050505050565b61025d6102d3565b6001600160a01b0381166102c75760405162461bcd60e51b815260206004820152602660248201527f4f776e61626c653a206e6577206f776e657220697320746865207a65726f206160448201526564647265737360d01b60648201526084015b60405180910390fd5b6102d08161032d565b50565b6000546001600160a01b0316331461012f5760405162461bcd60e51b815260206004820181905260248201527f4f776e61626c653a2063616c6c6572206973206e6f7420746865206f776e657260448201526064016102be565b600080546001600160a01b038381166001600160a01b0319831681178455604051919092169283917f8be0079c531659141344cd1fd0a4f28419497f9722a3daafe3b4186f6b6457e09190a35050565b600061038982846106da565b9392505050565b60006103898284610707565b604080516001600160a01b0385811660248301528416604482015260648082018490528251808303909101815260849091019091526020810180516001600160e01b03166323b872dd60e01b1790526103f69085906103fc565b50505050565b6000610451826040518060400160405280602081526020017f5361666545524332303a206c6f772d6c6576656c2063616c6c206661696c6564815250856001600160a01b03166104d39092919063ffffffff16565b8051909150156104ce578080602001905181019061046f9190610729565b6104ce5760405162461bcd60e51b815260206004820152602a60248201527f5361666545524332303a204552433230206f7065726174696f6e20646964206e6044820152691bdd081cdd58d8d9595960b21b60648201526084016102be565b505050565b60606104e284846000856104ea565b949350505050565b60608247101561054b5760405162461bcd60e51b815260206004820152602660248201527f416464726573733a20696e73756666696369656e742062616c616e636520666f6044820152651c8818d85b1b60d21b60648201526084016102be565b6001600160a01b0385163b6105a25760405162461bcd60e51b815260206004820152601d60248201527f416464726573733a2063616c6c20746f206e6f6e2d636f6e747261637400000060448201526064016102be565b600080866001600160a01b031685876040516105be9190610777565b60006040518083038185875af1925050503d80600081146105fb576040519150601f19603f3d011682016040523d82523d6000602084013e610600565b606091505b509150915061061082828661061b565b979650505050505050565b6060831561062a575081610389565b82511561063a5782518084602001fd5b8160405162461bcd60e51b81526004016102be9190610793565b610aeb806107c783390190565b80356001600160a01b038116811461067857600080fd5b919050565b6000806000806080858703121561069357600080fd5b61069c85610661565b93506106aa60208601610661565b93969395505050506040820135916060013590565b6000602082840312156106d157600080fd5b61038982610661565b600081600019048311821515161561070257634e487b7160e01b600052601160045260246000fd5b500290565b60008261072457634e487b7160e01b600052601260045260246000fd5b500490565b60006020828403121561073b57600080fd5b8151801515811461038957600080fd5b60005b8381101561076657818101518382015260200161074e565b838111156103f65750506000910152565b6000825161078981846020870161074b565b9190910192915050565b60208152600082518060208401526107b281604085016020870161074b565b601f01601f1916919091016040019291505056fe6080604052600a600355600f60075534801561001a57600080fd5b50604051610aeb380380610aeb8339810160408190526100399161009f565b6001600081905580546001600160a01b03199081166001600160a01b03968716179091556002805482169486169490941790935560048054909316919093161790556007556100ea565b80516001600160a01b038116811461009a57600080fd5b919050565b600080600080608085870312156100b557600080fd5b6100be85610083565b93506100cc60208601610083565b92506100da60408601610083565b6060959095015193969295505050565b6109f2806100f96000396000f3fe608060405234801561001057600080fd5b50600436106100b45760003560e01c8063cb03fb1e11610071578063cb03fb1e14610143578063ddca3f4314610163578063f40f0f521461016c578063f7c618c11461017f578063fc0c546a14610192578063fc7e286d146101a557600080fd5b80632bd10d02146100b95780632e17de78146100e95780634641257d146100fe57806357a0a1401461010657806370a082311461011d578063a694fc3a14610130575b600080fd5b6004546100cc906001600160a01b031681565b6040516001600160a01b0390911681526020015b60405180910390f35b6100fc6100f7366004610857565b6101c5565b005b6100fc6102b2565b61010f60075481565b6040519081526020016100e0565b61010f61012b366004610870565b6103b5565b6100fc61013e366004610857565b6103e9565b61010f610151366004610870565b60066020526000908152604090205481565b61010f60035481565b61010f61017a366004610870565b6104bb565b6002546100cc906001600160a01b031681565b6001546100cc906001600160a01b031681565b61010f6101b3366004610870565b60056020526000908152604090205481565b336000908152600560205260409020548111156102355760405162461bcd60e51b815260206004820152602360248201527f4e6f7420656e6f75676820757365722062616c616e636520746f20776974686460448201526272617760e81b60648201526084015b60405180910390fd5b6000610240336104bb565b9050801561025f5760025461025f906001600160a01b0316338361053a565b336000908152600560205260408120805484929061027e9084906108af565b90915550503360008181526006602052604090204290556001546102ae916001600160a01b03909116908461053a565b5050565b336000908152600560205260409020546103075760405162461bcd60e51b81526020600482015260166024820152754e6f2062616c616e636520746f20776974686472617760501b604482015260640161022c565b6000610312336104bb565b905080156103a05760025460405163a9059cbb60e01b8152336004820152602481018390526001600160a01b039091169063a9059cbb90604401602060405180830381600087803b15801561036657600080fd5b505af115801561037a573d6000803e3d6000fd5b505050506040513d601f19601f8201168201806040525081019061039e91906108c6565b505b50336000908152600660205260409020429055565b60006103c0826104bb565b6001600160a01b0383166000908152600560205260409020546103e391906108e8565b92915050565b60006103f4336104bb565b9050801561041357600254610413906001600160a01b0316338361053a565b3360009081526005602052604090205461042e9083906108e8565b33600081815260056020908152604080832094909455600690529190912042905560045460035461049192916001600160a01b03169061047d906103e8906104779088906105a2565b906105ae565b6001546001600160a01b03169291906105ba565b6102ae333061047d6104b46103e8610477600354896105a290919063ffffffff16565b86906105f8565b6001600160a01b03811660009081526006602052604081205481906104e090426108af565b905061053362278d006104778361052d6103e8610477600754600560008c6001600160a01b03166001600160a01b03168152602001908152602001600020546105a290919063ffffffff16565b906105a2565b9392505050565b6040516001600160a01b03831660248201526044810182905261059d90849063a9059cbb60e01b906064015b60408051601f198184030181529190526020810180516001600160e01b03166001600160e01b031990931692909217909152610604565b505050565b60006105338284610900565b6000610533828461091f565b6040516001600160a01b03808516602483015283166044820152606481018290526105f29085906323b872dd60e01b90608401610566565b50505050565b600061053382846108af565b6000610659826040518060400160405280602081526020017f5361666545524332303a206c6f772d6c6576656c2063616c6c206661696c6564815250856001600160a01b03166106d69092919063ffffffff16565b80519091501561059d578080602001905181019061067791906108c6565b61059d5760405162461bcd60e51b815260206004820152602a60248201527f5361666545524332303a204552433230206f7065726174696f6e20646964206e6044820152691bdd081cdd58d8d9595960b21b606482015260840161022c565b60606106e584846000856106ed565b949350505050565b60608247101561074e5760405162461bcd60e51b815260206004820152602660248201527f416464726573733a20696e73756666696369656e742062616c616e636520666f6044820152651c8818d85b1b60d21b606482015260840161022c565b6001600160a01b0385163b6107a55760405162461bcd60e51b815260206004820152601d60248201527f416464726573733a2063616c6c20746f206e6f6e2d636f6e7472616374000000604482015260640161022c565b600080866001600160a01b031685876040516107c1919061096d565b60006040518083038185875af1925050503d80600081146107fe576040519150601f19603f3d011682016040523d82523d6000602084013e610803565b606091505b509150915061081382828661081e565b979650505050505050565b6060831561082d575081610533565b82511561083d5782518084602001fd5b8160405162461bcd60e51b815260040161022c9190610989565b60006020828403121561086957600080fd5b5035919050565b60006020828403121561088257600080fd5b81356001600160a01b038116811461053357600080fd5b634e487b7160e01b600052601160045260246000fd5b6000828210156108c1576108c1610899565b500390565b6000602082840312156108d857600080fd5b8151801515811461053357600080fd5b600082198211156108fb576108fb610899565b500190565b600081600019048311821515161561091a5761091a610899565b500290565b60008261093c57634e487b7160e01b600052601260045260246000fd5b500490565b60005b8381101561095c578181015183820152602001610944565b838111156105f25750506000910152565b6000825161097f818460208701610941565b9190910192915050565b60208152600082518060208401526109a8816040850160208701610941565b601f01601f1916919091016040019291505056fea2646970667358221220df0b38f13f0ca1a8bc284b162ee510eaff2385cc2f1068b7a0b6c913597abe0664736f6c63430008090033a2646970667358221220b43f0056bd5f2432edd90ebc24789b3bc2afa4f35f2ccf8263479ae2cb9d8e6b64736f6c63430008090033",
  "linkReferences": {},
  "deployedLinkReferences": {}
}