{
  "_format": "hh-sol-artifact-1",
  "contractName": "Farm",
  "sourceName": "contracts/Farm.sol",
  "abi": [
    {
      "inputs": [
        {
          "internalType": "address",
          "name": "_factory",
          "type": "address"
        },
        {
          "internalType": "address",
          "name": "_farmGenerator",
          "type": "address"
        }
      ],
      "stateMutability": "nonpayable",
      "type": "constructor"
    },
    {
      "anonymous": false,
      "inputs": [
        {
          "indexed": true,
          "internalType": "address",
          "name": "user",
          "type": "address"
        },
        {
          "indexed": false,
          "internalType": "uint256",
          "name": "amount",
          "type": "uint256"
        }
      ],
      "name": "Deposit",
      "type": "event"
    },
    {
      "anonymous": false,
      "inputs": [
        {
          "indexed": true,
          "internalType": "address",
          "name": "user",
          "type": "address"
        },
        {
          "indexed": false,
          "internalType": "uint256",
          "name": "amount",
          "type": "uint256"
        }
      ],
      "name": "EmergencyWithdraw",
      "type": "event"
    },
    {
      "anonymous": false,
      "inputs": [
        {
          "indexed": true,
          "internalType": "address",
          "name": "user",
          "type": "address"
        },
        {
          "indexed": false,
          "internalType": "uint256",
          "name": "amount",
          "type": "uint256"
        }
      ],
      "name": "Withdraw",
      "type": "event"
    },
    {
      "inputs": [
        {
          "internalType": "uint256",
          "name": "_amount",
          "type": "uint256"
        }
      ],
      "name": "deposit",
      "outputs": [],
      "stateMutability": "nonpayable",
      "type": "function"
    },
    {
      "inputs": [],
      "name": "emergencyWithdraw",
      "outputs": [],
      "stateMutability": "nonpayable",
      "type": "function"
    },
    {
      "inputs": [],
      "name": "factory",
      "outputs": [
        {
          "internalType": "contract IFactory",
          "name": "",
          "type": "address"
        }
      ],
      "stateMutability": "view",
      "type": "function"
    },
    {
      "inputs": [],
      "name": "farmGenerator",
      "outputs": [
        {
          "internalType": "address",
          "name": "",
          "type": "address"
        }
      ],
      "stateMutability": "view",
      "type": "function"
    },
    {
      "inputs": [],
      "name": "farmInfo",
      "outputs": [
        {
          "internalType": "contract IERC20",
          "name": "lpToken",
          "type": "address"
        },
        {
          "internalType": "contract IERC20",
          "name": "rewardToken",
          "type": "address"
        },
        {
          "internalType": "uint256",
          "name": "startBlock",
          "type": "uint256"
        },
        {
          "internalType": "uint256",
          "name": "blockReward",
          "type": "uint256"
        },
        {
          "internalType": "uint256",
          "name": "bonusEndBlock",
          "type": "uint256"
        },
        {
          "internalType": "uint256",
          "name": "bonus",
          "type": "uint256"
        },
        {
          "internalType": "uint256",
          "name": "endBlock",
          "type": "uint256"
        },
        {
          "internalType": "uint256",
          "name": "lastRewardBlock",
          "type": "uint256"
        },
        {
          "internalType": "uint256",
          "name": "accRewardPerShare",
          "type": "uint256"
        },
        {
          "internalType": "uint256",
          "name": "farmableSupply",
          "type": "uint256"
        },
        {
          "internalType": "uint256",
          "name": "numFarmers",
          "type": "uint256"
        },
        {
          "internalType": "uint256",
          "name": "lockPeriod",
          "type": "uint256"
        }
      ],
      "stateMutability": "view",
      "type": "function"
    },
    {
      "inputs": [
        {
          "internalType": "uint256",
          "name": "_from_block",
          "type": "uint256"
        },
        {
          "internalType": "uint256",
          "name": "_to",
          "type": "uint256"
        }
      ],
      "name": "getMultiplier",
      "outputs": [
        {
          "internalType": "uint256",
          "name": "",
          "type": "uint256"
        }
      ],
      "stateMutability": "view",
      "type": "function"
    },
    {
      "inputs": [
        {
          "components": [
            {
              "internalType": "contract IERC20",
              "name": "lpToken",
              "type": "address"
            },
            {
              "internalType": "contract IERC20",
              "name": "rewardToken",
              "type": "address"
            },
            {
              "internalType": "uint256",
              "name": "startBlock",
              "type": "uint256"
            },
            {
              "internalType": "uint256",
              "name": "blockReward",
              "type": "uint256"
            },
            {
              "internalType": "uint256",
              "name": "bonusEndBlock",
              "type": "uint256"
            },
            {
              "internalType": "uint256",
              "name": "bonus",
              "type": "uint256"
            },
            {
              "internalType": "uint256",
              "name": "endBlock",
              "type": "uint256"
            },
            {
              "internalType": "uint256",
              "name": "lastRewardBlock",
              "type": "uint256"
            },
            {
              "internalType": "uint256",
              "name": "accRewardPerShare",
              "type": "uint256"
            },
            {
              "internalType": "uint256",
              "name": "farmableSupply",
              "type": "uint256"
            },
            {
              "internalType": "uint256",
              "name": "numFarmers",
              "type": "uint256"
            },
            {
              "internalType": "uint256",
              "name": "lockPeriod",
              "type": "uint256"
            }
          ],
          "internalType": "struct Farm.FarmInfo",
          "name": "_farmInfo",
          "type": "tuple"
        }
      ],
      "name": "init",
      "outputs": [],
      "stateMutability": "nonpayable",
      "type": "function"
    },
    {
      "inputs": [
        {
          "internalType": "uint256",
          "name": "_period",
          "type": "uint256"
        }
      ],
      "name": "lock",
      "outputs": [],
      "stateMutability": "nonpayable",
      "type": "function"
    },
    {
      "inputs": [
        {
          "internalType": "address",
          "name": "_user",
          "type": "address"
        }
      ],
      "name": "pendingReward",
      "outputs": [
        {
          "internalType": "uint256",
          "name": "",
          "type": "uint256"
        }
      ],
      "stateMutability": "view",
      "type": "function"
    },
    {
      "inputs": [],
      "name": "updatePool",
      "outputs": [],
      "stateMutability": "nonpayable",
      "type": "function"
    },
    {
      "inputs": [
        {
          "internalType": "address",
          "name": "",
          "type": "address"
        }
      ],
      "name": "userInfo",
      "outputs": [
        {
          "internalType": "uint256",
          "name": "amount",
          "type": "uint256"
        },
        {
          "internalType": "uint256",
          "name": "rewardDebt",
          "type": "uint256"
        },
        {
          "internalType": "uint256",
          "name": "unlockPeriod",
          "type": "uint256"
        },
        {
          "internalType": "uint256",
          "name": "depositTime",
          "type": "uint256"
        }
      ],
      "stateMutability": "view",
      "type": "function"
    },
    {
      "inputs": [
        {
          "internalType": "uint256",
          "name": "_amount",
          "type": "uint256"
        }
      ],
      "name": "withdraw",
      "outputs": [],
      "stateMutability": "nonpayable",
      "type": "function"
    }
  ],
  "bytecode": "0x608060405234801561001057600080fd5b5060405161134738038061134783398101604081905261002f9161007c565b600080546001600160a01b039384166001600160a01b031991821617909155600180549290931691161790556100af565b80516001600160a01b038116811461007757600080fd5b919050565b6000806040838503121561008f57600080fd5b61009883610060565b91506100a660208401610060565b90509250929050565b611289806100be6000396000f3fe608060405234801561001057600080fd5b50600436106100b45760003560e01c8063b6b55f2511610071578063b6b55f251461022d578063c45a015514610240578063db2e21bc14610253578063dd4670641461025b578063e3161ddd1461027e578063f40f0f521461028657600080fd5b80631959a002146100b95780631d49d66c146101135780632dd99996146101b95780632e1a7d4d146101e45780638db2e968146101f95780638dbb1e3a1461020c575b600080fd5b6100ee6100c7366004610f98565b600e6020526000908152604090208054600182015460028301546003909301549192909184565b6040805194855260208501939093529183015260608201526080015b60405180910390f35b600254600354600454600554600654600754600854600954600a54600b54600c54600d546101559b6001600160a01b039081169b16999897969594939291908c565b604080516001600160a01b039d8e1681529c909b1660208d0152998b019890985260608a0196909652608089019490945260a088019290925260c087015260e08601526101008501526101208401526101408301526101608201526101800161010a565b6001546101cc906001600160a01b031681565b6040516001600160a01b03909116815260200161010a565b6101f76101f2366004610fb5565b610299565b005b6101f7610207366004611016565b6104d0565b61021f61021a3660046110c3565b6105b6565b60405190815260200161010a565b6101f761023b366004610fb5565b61065b565b6000546101cc906001600160a01b031681565b6101f76107c8565b6101f7610269366004610fb5565b336000908152600e6020526040902060020155565b6101f76108b0565b61021f610294366004610f98565b6109bb565b336000908152600e6020526040902080548211156102ed5760405162461bcd60e51b815260206004820152600c60248201526b125394d551919250d251539560a21b60448201526064015b60405180910390fd5b428160030154826002015461030291906110fb565b11156103505760405162461bcd60e51b815260206004820152601760248201527f596f752063616e2774207769746864726177206e6f772e00000000000000000060448201526064016102e4565b6103586108b0565b8054821480156103685750600082115b156103e157600054604051631db2c95560e21b81523360048201526001600160a01b03909116906376cb255490602401600060405180830381600087803b1580156103b257600080fd5b505af11580156103c6573d6000803e3d6000fd5b5050600c80549250905060006103db83611113565b91905055505b600061041c826001015461041664e8d4a510006104106002600801548760000154610b0a90919063ffffffff16565b90610b1d565b90610b29565b60028301549091501561044957600d5460028301546104469161043f9190610b1d565b8290610b0a565b90505b6104533382610b35565b815461045f9084610b29565b808355600a5461047a9164e8d4a51000916104109190610b0a565b6001830155600254610496906001600160a01b03163385610c86565b60405183815233907f884edad9ce6fa2440d8a54cc123490eb96d2768479d49ff9c7366125a94243649060200160405180910390a2505050565b6001546001600160a01b031633146105165760405162461bcd60e51b81526020600482015260096024820152682327a92124a22222a760b91b60448201526064016102e4565b6020810151600380546001600160a01b0319166001600160a01b03909216919091179055604081015160048190556060820151600555608082015160065560a0820151600755600090431161056f578160400151610571565b435b8251600280546001600160a01b0319166001600160a01b03909216919091179055600955506000600a5560c0810151600855610120810151600b556101600151600d55565b60008060028001548410156105cd576004546105cf565b835b9050600083600260060154116105e7576008546105e9565b835b60065490915081116106155760075461060c906106068385610b29565b90610b0a565b92505050610655565b60065482106106285761060c8183610b29565b60065461060c9061063a908390610b29565b60075460065461064f91906106069087610b29565b90610ce9565b92915050565b336000908152600e602052604090206106726108b0565b8054156106b65760006106a8826001015461041664e8d4a510006104106002600801548760000154610b0a90919063ffffffff16565b90506106b43382610b35565b505b80541580156106c55750600082115b1561073e576000546040516379cdf99b60e01b81523360048201526001600160a01b03909116906379cdf99b90602401600060405180830381600087803b15801561070f57600080fd5b505af1158015610723573d6000803e3d6000fd5b5050600c80549250905060006107388361112a565b91905055505b600254610756906001600160a01b0316333085610cf5565b80546107629083610ce9565b808255600a5461077d9164e8d4a51000916104109190610b0a565b60018201556000600282015542600382015560405182815233907fe1fffcc4923d04b559f4d29a8bfc6cda04eb5b0d3c460751c2402c5c5cc9109c9060200160405180910390a25050565b336000818152600e60205260409020805460025491926107f1926001600160a01b031691610c86565b805460405190815233907f5fafa99d0643513820be26656b45130b01e1c03062e1266bf36f88cbd3bd96959060200160405180910390a28054156108a357600054604051631db2c95560e21b81523360048201526001600160a01b03909116906376cb255490602401600060405180830381600087803b15801561087457600080fd5b505af1158015610888573d6000803e3d6000fd5b5050600c805492509050600061089d83611113565b91905055505b6000808255600190910155565b60095443116108bb57565b6002546040516370a0823160e01b81523060048201526000916001600160a01b0316906370a082319060240160206040518083038186803b1580156108ff57600080fd5b505afa158015610913573d6000803e3d6000fd5b505050506040513d601f19601f820116820180604052508101906109379190611145565b90508061095757600854431061094f57600854610951565b435b60095550565b6000610968600260070154436105b6565b60055490915060009061097c908390610b0a565b905061099d610994846104108464e8d4a51000610b0a565b600a5490610ce9565b600a5560085443106109b1576008546109b3565b435b600955505050565b6001600160a01b038181166000908152600e6020526040808220600a5460025492516370a0823160e01b8152306004820152939491939092859216906370a082319060240160206040518083038186803b158015610a1857600080fd5b505afa158015610a2c573d6000803e3d6000fd5b505050506040513d601f19601f82011682018060405250810190610a509190611145565b60095490915043118015610a6357508015155b15610ab1576000610a79600260070154436105b6565b600554909150600090610a8d908390610b0a565b9050610aac610aa5846104108464e8d4a51000610b0a565b8590610ce9565b935050505b6000610adb846001015461041664e8d4a51000610410878960000154610b0a90919063ffffffff16565b600285015490915015610b0157600d546002850154610afe9161043f9190610b1d565b90505b95945050505050565b6000610b16828461115e565b9392505050565b6000610b16828461117d565b6000610b16828461119f565b6003546040516370a0823160e01b81523060048201526000916001600160a01b0316906370a082319060240160206040518083038186803b158015610b7957600080fd5b505afa158015610b8d573d6000803e3d6000fd5b505050506040513d601f19601f82011682018060405250810190610bb19190611145565b905080821115610c485760035460405163a9059cbb60e01b81526001600160a01b038581166004830152602482018490529091169063a9059cbb906044015b602060405180830381600087803b158015610c0a57600080fd5b505af1158015610c1e573d6000803e3d6000fd5b505050506040513d601f19601f82011682018060405250810190610c4291906111b6565b50505050565b60035460405163a9059cbb60e01b81526001600160a01b038581166004830152602482018590529091169063a9059cbb90604401610bf0565b505050565b6040516001600160a01b038316602482015260448101829052610c8190849063a9059cbb60e01b906064015b60408051601f198184030181529190526020810180516001600160e01b03166001600160e01b031990931692909217909152610d2d565b6000610b1682846110fb565b6040516001600160a01b0380851660248301528316604482015260648101829052610c429085906323b872dd60e01b90608401610cb2565b6000610d82826040518060400160405280602081526020017f5361666545524332303a206c6f772d6c6576656c2063616c6c206661696c6564815250856001600160a01b0316610dff9092919063ffffffff16565b805190915015610c815780806020019051810190610da091906111b6565b610c815760405162461bcd60e51b815260206004820152602a60248201527f5361666545524332303a204552433230206f7065726174696f6e20646964206e6044820152691bdd081cdd58d8d9595960b21b60648201526084016102e4565b6060610e0e8484600085610e16565b949350505050565b606082471015610e775760405162461bcd60e51b815260206004820152602660248201527f416464726573733a20696e73756666696369656e742062616c616e636520666f6044820152651c8818d85b1b60d21b60648201526084016102e4565b6001600160a01b0385163b610ece5760405162461bcd60e51b815260206004820152601d60248201527f416464726573733a2063616c6c20746f206e6f6e2d636f6e747261637400000060448201526064016102e4565b600080866001600160a01b03168587604051610eea9190611204565b60006040518083038185875af1925050503d8060008114610f27576040519150601f19603f3d011682016040523d82523d6000602084013e610f2c565b606091505b5091509150610f3c828286610f47565b979650505050505050565b60608315610f56575081610b16565b825115610f665782518084602001fd5b8160405162461bcd60e51b81526004016102e49190611220565b6001600160a01b0381168114610f9557600080fd5b50565b600060208284031215610faa57600080fd5b8135610b1681610f80565b600060208284031215610fc757600080fd5b5035919050565b604051610180810167ffffffffffffffff8111828210171561100057634e487b7160e01b600052604160045260246000fd5b60405290565b803561101181610f80565b919050565b6000610180828403121561102957600080fd5b611031610fce565b61103a83611006565b815261104860208401611006565b602082015260408301356040820152606083013560608201526080830135608082015260a083013560a082015260c083013560c082015260e083013560e08201526101008084013581830152506101208084013581830152506101408084013581830152506101608084013581830152508091505092915050565b600080604083850312156110d657600080fd5b50508035926020909101359150565b634e487b7160e01b600052601160045260246000fd5b6000821982111561110e5761110e6110e5565b500190565b600081611122576111226110e5565b506000190190565b600060001982141561113e5761113e6110e5565b5060010190565b60006020828403121561115757600080fd5b5051919050565b6000816000190483118215151615611178576111786110e5565b500290565b60008261119a57634e487b7160e01b600052601260045260246000fd5b500490565b6000828210156111b1576111b16110e5565b500390565b6000602082840312156111c857600080fd5b81518015158114610b1657600080fd5b60005b838110156111f35781810151838201526020016111db565b83811115610c425750506000910152565b600082516112168184602087016111d8565b9190910192915050565b602081526000825180602084015261123f8160408501602087016111d8565b601f01601f1916919091016040019291505056fea264697066735822122076a822cba95d0f2842953da1127ad6b5c7813fc9a4998dbe9934036d3ad6828b64736f6c63430008090033",
  "linkReferences": {},
  "deployedLinkReferences": {}
}