{
  "_format": "hh-sol-artifact-1",
  "contractName": "PoolFactory",
  "sourceName": "contracts/PoolFactory.sol",
  "abi": [
    {
      "anonymous": false,
      "inputs": [
        {
          "indexed": true,
          "internalType": "address",
          "name": "previousOwner",
          "type": "address"
        },
        {
          "indexed": true,
          "internalType": "address",
          "name": "newOwner",
          "type": "address"
        }
      ],
      "name": "OwnershipTransferred",
      "type": "event"
    },
    {
      "inputs": [
        {
          "internalType": "address",
          "name": "_address",
          "type": "address"
        },
        {
          "internalType": "bool",
          "name": "_allow",
          "type": "bool"
        }
      ],
      "name": "adminAllowPoolGenerator",
      "outputs": [],
      "stateMutability": "nonpayable",
      "type": "function"
    },
    {
      "inputs": [],
      "name": "owner",
      "outputs": [
        {
          "internalType": "address",
          "name": "",
          "type": "address"
        }
      ],
      "stateMutability": "view",
      "type": "function"
    },
    {
      "inputs": [
        {
          "internalType": "uint256",
          "name": "_index",
          "type": "uint256"
        }
      ],
      "name": "poolAtIndex",
      "outputs": [
        {
          "internalType": "address",
          "name": "",
          "type": "address"
        }
      ],
      "stateMutability": "view",
      "type": "function"
    },
    {
      "inputs": [
        {
          "internalType": "uint256",
          "name": "_index",
          "type": "uint256"
        }
      ],
      "name": "poolGeneratorAtIndex",
      "outputs": [
        {
          "internalType": "address",
          "name": "",
          "type": "address"
        }
      ],
      "stateMutability": "view",
      "type": "function"
    },
    {
      "inputs": [],
      "name": "poolGeneratorsLength",
      "outputs": [
        {
          "internalType": "uint256",
          "name": "",
          "type": "uint256"
        }
      ],
      "stateMutability": "view",
      "type": "function"
    },
    {
      "inputs": [],
      "name": "poolsLength",
      "outputs": [
        {
          "internalType": "uint256",
          "name": "",
          "type": "uint256"
        }
      ],
      "stateMutability": "view",
      "type": "function"
    },
    {
      "inputs": [
        {
          "internalType": "address",
          "name": "_poolAddress",
          "type": "address"
        }
      ],
      "name": "registerPool",
      "outputs": [],
      "stateMutability": "nonpayable",
      "type": "function"
    },
    {
      "inputs": [],
      "name": "renounceOwnership",
      "outputs": [],
      "stateMutability": "nonpayable",
      "type": "function"
    },
    {
      "inputs": [
        {
          "internalType": "address",
          "name": "newOwner",
          "type": "address"
        }
      ],
      "name": "transferOwnership",
      "outputs": [],
      "stateMutability": "nonpayable",
      "type": "function"
    },
    {
      "inputs": [
        {
          "internalType": "address",
          "name": "_user",
          "type": "address"
        }
      ],
      "name": "userEnteredPool",
      "outputs": [],
      "stateMutability": "nonpayable",
      "type": "function"
    },
    {
      "inputs": [
        {
          "internalType": "address",
          "name": "_user",
          "type": "address"
        }
      ],
      "name": "userLeftPool",
      "outputs": [],
      "stateMutability": "nonpayable",
      "type": "function"
    },
    {
      "inputs": [
        {
          "internalType": "address",
          "name": "_user",
          "type": "address"
        },
        {
          "internalType": "uint256",
          "name": "_index",
          "type": "uint256"
        }
      ],
      "name": "userPoolAtIndex",
      "outputs": [
        {
          "internalType": "address",
          "name": "",
          "type": "address"
        }
      ],
      "stateMutability": "view",
      "type": "function"
    },
    {
      "inputs": [
        {
          "internalType": "address",
          "name": "_user",
          "type": "address"
        }
      ],
      "name": "userPoolsLength",
      "outputs": [
        {
          "internalType": "uint256",
          "name": "",
          "type": "uint256"
        }
      ],
      "stateMutability": "view",
      "type": "function"
    }
  ],
  "bytecode": "0x608060405234801561001057600080fd5b5061001a3361001f565b61006f565b600080546001600160a01b038381166001600160a01b0319831681178455604051919092169283917f8be0079c531659141344cd1fd0a4f28419497f9722a3daafe3b4186f6b6457e09190a35050565b6107bf8061007e6000396000f3fe608060405234801561001057600080fd5b50600436106100cf5760003560e01c80638182fbaa1161008c578063d22baa4011610066578063d22baa4014610189578063d76666ac1461019c578063f2fde38b146101af578063ff80f23e146101c257600080fd5b80638182fbaa146101525780638da5cb5b14610165578063abd908461461017657600080fd5b8063040a5280146100d45780632716ae661461010457806343e451be1461011a578063661147831461012d578063715018a614610140578063745e3ee61461014a575b600080fd5b6100e76100e236600461067b565b6101d5565b6040516001600160a01b0390911681526020015b60405180910390f35b61010c610201565b6040519081526020016100fb565b6100e76101283660046106a5565b610212565b6100e761013b3660046106a5565b61021f565b61014861022c565b005b61010c610240565b6101486101603660046106be565b61024c565b6000546001600160a01b03166100e7565b6101486101843660046106be565b6102a3565b61010c6101973660046106be565b6102d9565b6101486101aa3660046106d9565b610301565b6101486101bd3660046106be565b610325565b6101486101d03660046106be565b61039e565b6001600160a01b03821660009081526005602052604081206101f781846103e7565b9150505b92915050565b600061020d60016103f3565b905090565b60006101fb6001836103e7565b60006101fb6003836103e7565b6102346103fd565b61023e6000610457565b565b600061020d60036103f3565b6102576001336104a7565b61027c5760405162461bcd60e51b815260040161027390610715565b60405180910390fd5b6001600160a01b038116600090815260056020526040902061029e81336104c9565b505050565b6102ae6003336104a7565b6102ca5760405162461bcd60e51b815260040161027390610715565b6102d56001826104c9565b5050565b6001600160a01b03811660009081526005602052604081206102fa816103f3565b9392505050565b6103096103fd565b801561031a5761029e6003836104c9565b61029e6003836104de565b61032d6103fd565b6001600160a01b0381166103925760405162461bcd60e51b815260206004820152602660248201527f4f776e61626c653a206e6577206f776e657220697320746865207a65726f206160448201526564647265737360d01b6064820152608401610273565b61039b81610457565b50565b6103a96001336104a7565b6103c55760405162461bcd60e51b815260040161027390610715565b6001600160a01b038116600090815260056020526040902061029e81336104de565b60006102fa83836104f3565b60006101fb825490565b6000546001600160a01b0316331461023e5760405162461bcd60e51b815260206004820181905260248201527f4f776e61626c653a2063616c6c6572206973206e6f7420746865206f776e65726044820152606401610273565b600080546001600160a01b038381166001600160a01b0319831681178455604051919092169283917f8be0079c531659141344cd1fd0a4f28419497f9722a3daafe3b4186f6b6457e09190a35050565b6001600160a01b038116600090815260018301602052604081205415156102fa565b60006102fa836001600160a01b03841661051d565b60006102fa836001600160a01b03841661056c565b600082600001828154811061050a5761050a610738565b9060005260206000200154905092915050565b6000818152600183016020526040812054610564575081546001818101845560008481526020808220909301849055845484825282860190935260409020919091556101fb565b5060006101fb565b6000818152600183016020526040812054801561065557600061059060018361074e565b85549091506000906105a49060019061074e565b90508181146106095760008660000182815481106105c4576105c4610738565b90600052602060002001549050808760000184815481106105e7576105e7610738565b6000918252602080832090910192909255918252600188019052604090208390555b855486908061061a5761061a610773565b6001900381819060005260206000200160009055905585600101600086815260200190815260200160002060009055600193505050506101fb565b60009150506101fb565b80356001600160a01b038116811461067657600080fd5b919050565b6000806040838503121561068e57600080fd5b6106978361065f565b946020939093013593505050565b6000602082840312156106b757600080fd5b5035919050565b6000602082840312156106d057600080fd5b6102fa8261065f565b600080604083850312156106ec57600080fd5b6106f58361065f565b91506020830135801515811461070a57600080fd5b809150509250929050565b6020808252600990820152682327a92124a22222a760b91b604082015260600190565b634e487b7160e01b600052603260045260246000fd5b60008282101561076e57634e487b7160e01b600052601160045260246000fd5b500390565b634e487b7160e01b600052603160045260246000fdfea264697066735822122084fdc5a3bfe974ca481441f8b274dce58b7dbf9767e174e8dc8d610d525a02a064736f6c63430008090033",
  "linkReferences": {},
  "deployedLinkReferences": {}
}