{
  "_format": "hh-sol-artifact-1",
  "contractName": "Pool",
  "sourceName": "contracts/Pool.sol",
  "abi": [
    {
      "inputs": [
        {
          "internalType": "address",
          "name": "_token",
          "type": "address"
        },
        {
          "internalType": "address",
          "name": "_rewardToken",
          "type": "address"
        },
        {
          "internalType": "address",
          "name": "_owner",
          "type": "address"
        },
        {
          "internalType": "uint256",
          "name": "_aprPercent",
          "type": "uint256"
        }
      ],
      "stateMutability": "nonpayable",
      "type": "constructor"
    },
    {
      "inputs": [],
      "name": "aprPercent",
      "outputs": [
        {
          "internalType": "uint256",
          "name": "",
          "type": "uint256"
        }
      ],
      "stateMutability": "view",
      "type": "function"
    },
    {
      "inputs": [
        {
          "internalType": "address",
          "name": "account",
          "type": "address"
        }
      ],
      "name": "balanceOf",
      "outputs": [
        {
          "internalType": "uint256",
          "name": "",
          "type": "uint256"
        }
      ],
      "stateMutability": "view",
      "type": "function"
    },
    {
      "inputs": [
        {
          "internalType": "address",
          "name": "",
          "type": "address"
        }
      ],
      "name": "deposits",
      "outputs": [
        {
          "internalType": "uint256",
          "name": "",
          "type": "uint256"
        }
      ],
      "stateMutability": "view",
      "type": "function"
    },
    {
      "inputs": [],
      "name": "fee",
      "outputs": [
        {
          "internalType": "uint256",
          "name": "",
          "type": "uint256"
        }
      ],
      "stateMutability": "view",
      "type": "function"
    },
    {
      "inputs": [],
      "name": "getStakerCount",
      "outputs": [
        {
          "internalType": "uint256",
          "name": "",
          "type": "uint256"
        }
      ],
      "stateMutability": "view",
      "type": "function"
    },
    {
      "inputs": [],
      "name": "harvest",
      "outputs": [],
      "stateMutability": "nonpayable",
      "type": "function"
    },
    {
      "inputs": [
        {
          "internalType": "address",
          "name": "",
          "type": "address"
        }
      ],
      "name": "lastUpdate",
      "outputs": [
        {
          "internalType": "uint256",
          "name": "",
          "type": "uint256"
        }
      ],
      "stateMutability": "view",
      "type": "function"
    },
    {
      "inputs": [],
      "name": "ownAddr",
      "outputs": [
        {
          "internalType": "address",
          "name": "",
          "type": "address"
        }
      ],
      "stateMutability": "view",
      "type": "function"
    },
    {
      "inputs": [
        {
          "internalType": "address",
          "name": "account",
          "type": "address"
        }
      ],
      "name": "pendingReward",
      "outputs": [
        {
          "internalType": "uint256",
          "name": "",
          "type": "uint256"
        }
      ],
      "stateMutability": "view",
      "type": "function"
    },
    {
      "inputs": [],
      "name": "rewardToken",
      "outputs": [
        {
          "internalType": "contract IERC20",
          "name": "",
          "type": "address"
        }
      ],
      "stateMutability": "view",
      "type": "function"
    },
    {
      "inputs": [
        {
          "internalType": "uint256",
          "name": "amount",
          "type": "uint256"
        }
      ],
      "name": "stake",
      "outputs": [],
      "stateMutability": "nonpayable",
      "type": "function"
    },
    {
      "inputs": [],
      "name": "stakersCount",
      "outputs": [
        {
          "internalType": "uint256",
          "name": "",
          "type": "uint256"
        }
      ],
      "stateMutability": "view",
      "type": "function"
    },
    {
      "inputs": [],
      "name": "token",
      "outputs": [
        {
          "internalType": "contract IERC20",
          "name": "",
          "type": "address"
        }
      ],
      "stateMutability": "view",
      "type": "function"
    },
    {
      "inputs": [
        {
          "internalType": "uint256",
          "name": "amount",
          "type": "uint256"
        }
      ],
      "name": "unstake",
      "outputs": [],
      "stateMutability": "nonpayable",
      "type": "function"
    }
  ],
  "bytecode": "0x6080604052600a600355600f60075534801561001a57600080fd5b50604051610b65380380610b658339810160408190526100399161009f565b6001600081905580546001600160a01b03199081166001600160a01b03968716179091556002805482169486169490941790935560048054909316919093161790556007556100ea565b80516001600160a01b038116811461009a57600080fd5b919050565b600080600080608085870312156100b557600080fd5b6100be85610083565b93506100cc60208601610083565b92506100da60408601610083565b6060959095015193969295505050565b610a6c806100f96000396000f3fe608060405234801561001057600080fd5b50600436106100ea5760003560e01c8063a694fc3a1161008c578063f40f0f5211610066578063f40f0f52146101af578063f7c618c1146101c2578063fc0c546a146101d5578063fc7e286d146101e857600080fd5b8063a694fc3a14610173578063cb03fb1e14610186578063ddca3f43146101a657600080fd5b80634641257d116100c85780634641257d1461014657806357a0a1401461014e57806370a0823114610157578063a2e80c5e1461016a57600080fd5b80631319649d146100ef5780632bd10d02146101065780632e17de7814610131575b600080fd5b6008545b6040519081526020015b60405180910390f35b600454610119906001600160a01b031681565b6040516001600160a01b0390911681526020016100fd565b61014461013f3660046108d1565b610208565b005b61014461030d565b6100f360075481565b6100f36101653660046108ea565b610410565b6100f360085481565b6101446101813660046108d1565b610444565b6100f36101943660046108ea565b60066020526000908152604090205481565b6100f360035481565b6100f36101bd3660046108ea565b610529565b600254610119906001600160a01b031681565b600154610119906001600160a01b031681565b6100f36101f63660046108ea565b60056020526000908152604090205481565b336000908152600560205260409020548111156102785760405162461bcd60e51b815260206004820152602360248201527f4e6f7420656e6f75676820757365722062616c616e636520746f20776974686460448201526272617760e81b60648201526084015b60405180910390fd5b600061028333610529565b905080156102a2576002546102a2906001600160a01b031633836105a8565b33600090815260056020526040812080548492906102c1908490610929565b90915550503360008181526006602052604090204290556001546102f1916001600160a01b0390911690846105a8565b6001600860008282546103049190610929565b90915550505050565b336000908152600560205260409020546103625760405162461bcd60e51b81526020600482015260166024820152754e6f2062616c616e636520746f20776974686472617760501b604482015260640161026f565b600061036d33610529565b905080156103fb5760025460405163a9059cbb60e01b8152336004820152602481018390526001600160a01b039091169063a9059cbb90604401602060405180830381600087803b1580156103c157600080fd5b505af11580156103d5573d6000803e3d6000fd5b505050506040513d601f19601f820116820180604052508101906103f99190610940565b505b50336000908152600660205260409020429055565b600061041b82610529565b6001600160a01b03831660009081526005602052604090205461043e9190610962565b92915050565b600061044f33610529565b9050801561046e5760025461046e906001600160a01b031633836105a8565b33600090815260056020526040902054610489908390610962565b3360008181526005602090815260408083209490945560069052919091204290556004546003546104ec92916001600160a01b0316906104d8906103e8906104d2908890610610565b9061061c565b6001546001600160a01b0316929190610628565b61051633306104d861050f6103e86104d26003548961061090919063ffffffff16565b8690610666565b6001600860008282546103049190610962565b6001600160a01b038116600090815260066020526040812054819061054e9042610929565b90506105a162278d006104d28361059b6103e86104d2600754600560008c6001600160a01b03166001600160a01b031681526020019081526020016000205461061090919063ffffffff16565b90610610565b9392505050565b6040516001600160a01b03831660248201526044810182905261060b90849063a9059cbb60e01b906064015b60408051601f198184030181529190526020810180516001600160e01b03166001600160e01b031990931692909217909152610672565b505050565b60006105a1828461097a565b60006105a18284610999565b6040516001600160a01b03808516602483015283166044820152606481018290526106609085906323b872dd60e01b906084016105d4565b50505050565b60006105a18284610929565b60006106c7826040518060400160405280602081526020017f5361666545524332303a206c6f772d6c6576656c2063616c6c206661696c6564815250856001600160a01b03166107449092919063ffffffff16565b80519091501561060b57808060200190518101906106e59190610940565b61060b5760405162461bcd60e51b815260206004820152602a60248201527f5361666545524332303a204552433230206f7065726174696f6e20646964206e6044820152691bdd081cdd58d8d9595960b21b606482015260840161026f565b6060610753848460008561075b565b949350505050565b6060824710156107bc5760405162461bcd60e51b815260206004820152602660248201527f416464726573733a20696e73756666696369656e742062616c616e636520666f6044820152651c8818d85b1b60d21b606482015260840161026f565b600080866001600160a01b031685876040516107d891906109e7565b60006040518083038185875af1925050503d8060008114610815576040519150601f19603f3d011682016040523d82523d6000602084013e61081a565b606091505b509150915061082b87838387610836565b979650505050505050565b606083156108a257825161089b576001600160a01b0385163b61089b5760405162461bcd60e51b815260206004820152601d60248201527f416464726573733a2063616c6c20746f206e6f6e2d636f6e7472616374000000604482015260640161026f565b5081610753565b61075383838151156108b75781518083602001fd5b8060405162461bcd60e51b815260040161026f9190610a03565b6000602082840312156108e357600080fd5b5035919050565b6000602082840312156108fc57600080fd5b81356001600160a01b03811681146105a157600080fd5b634e487b7160e01b600052601160045260246000fd5b60008282101561093b5761093b610913565b500390565b60006020828403121561095257600080fd5b815180151581146105a157600080fd5b6000821982111561097557610975610913565b500190565b600081600019048311821515161561099457610994610913565b500290565b6000826109b657634e487b7160e01b600052601260045260246000fd5b500490565b60005b838110156109d65781810151838201526020016109be565b838111156106605750506000910152565b600082516109f98184602087016109bb565b9190910192915050565b6020815260008251806020840152610a228160408501602087016109bb565b601f01601f1916919091016040019291505056fea2646970667358221220e4879756d5a40bb908c025a4f600b4e3907a53a8477f12b7de733f0af3d10b5c64736f6c63430008090033",
  "linkReferences": {},
  "deployedLinkReferences": {}
}