{
  "_format": "hh-sol-artifact-1",
  "contractName": "Factory",
  "sourceName": "contracts/Factory.sol",
  "abi": [
    {
      "anonymous": false,
      "inputs": [
        {
          "indexed": true,
          "internalType": "address",
          "name": "previousOwner",
          "type": "address"
        },
        {
          "indexed": true,
          "internalType": "address",
          "name": "newOwner",
          "type": "address"
        }
      ],
      "name": "OwnershipTransferred",
      "type": "event"
    },
    {
      "inputs": [
        {
          "internalType": "address",
          "name": "_address",
          "type": "address"
        },
        {
          "internalType": "bool",
          "name": "_allow",
          "type": "bool"
        }
      ],
      "name": "adminAllowFarmGenerator",
      "outputs": [],
      "stateMutability": "nonpayable",
      "type": "function"
    },
    {
      "inputs": [
        {
          "internalType": "uint256",
          "name": "_index",
          "type": "uint256"
        }
      ],
      "name": "farmAtIndex",
      "outputs": [
        {
          "internalType": "address",
          "name": "",
          "type": "address"
        }
      ],
      "stateMutability": "view",
      "type": "function"
    },
    {
      "inputs": [
        {
          "internalType": "uint256",
          "name": "_index",
          "type": "uint256"
        }
      ],
      "name": "farmAtIndexV3",
      "outputs": [
        {
          "internalType": "address",
          "name": "",
          "type": "address"
        }
      ],
      "stateMutability": "view",
      "type": "function"
    },
    {
      "inputs": [
        {
          "internalType": "uint256",
          "name": "_index",
          "type": "uint256"
        }
      ],
      "name": "farmGeneratorAtIndex",
      "outputs": [
        {
          "internalType": "address",
          "name": "",
          "type": "address"
        }
      ],
      "stateMutability": "view",
      "type": "function"
    },
    {
      "inputs": [],
      "name": "farmGeneratorsLength",
      "outputs": [
        {
          "internalType": "uint256",
          "name": "",
          "type": "uint256"
        }
      ],
      "stateMutability": "view",
      "type": "function"
    },
    {
      "inputs": [],
      "name": "farmsLength",
      "outputs": [
        {
          "internalType": "uint256",
          "name": "",
          "type": "uint256"
        }
      ],
      "stateMutability": "view",
      "type": "function"
    },
    {
      "inputs": [],
      "name": "farmsLengthV3",
      "outputs": [
        {
          "internalType": "uint256",
          "name": "",
          "type": "uint256"
        }
      ],
      "stateMutability": "view",
      "type": "function"
    },
    {
      "inputs": [],
      "name": "owner",
      "outputs": [
        {
          "internalType": "address",
          "name": "",
          "type": "address"
        }
      ],
      "stateMutability": "view",
      "type": "function"
    },
    {
      "inputs": [
        {
          "internalType": "address",
          "name": "_farmAddress",
          "type": "address"
        }
      ],
      "name": "registerFarm",
      "outputs": [],
      "stateMutability": "nonpayable",
      "type": "function"
    },
    {
      "inputs": [
        {
          "internalType": "address",
          "name": "_farmAddress",
          "type": "address"
        }
      ],
      "name": "registerFarmV3",
      "outputs": [],
      "stateMutability": "nonpayable",
      "type": "function"
    },
    {
      "inputs": [],
      "name": "renounceOwnership",
      "outputs": [],
      "stateMutability": "nonpayable",
      "type": "function"
    },
    {
      "inputs": [
        {
          "internalType": "address",
          "name": "newOwner",
          "type": "address"
        }
      ],
      "name": "transferOwnership",
      "outputs": [],
      "stateMutability": "nonpayable",
      "type": "function"
    },
    {
      "inputs": [
        {
          "internalType": "address",
          "name": "_user",
          "type": "address"
        }
      ],
      "name": "userEnteredFarm",
      "outputs": [],
      "stateMutability": "nonpayable",
      "type": "function"
    },
    {
      "inputs": [
        {
          "internalType": "address",
          "name": "_user",
          "type": "address"
        },
        {
          "internalType": "uint256",
          "name": "_index",
          "type": "uint256"
        }
      ],
      "name": "userFarmAtIndex",
      "outputs": [
        {
          "internalType": "address",
          "name": "",
          "type": "address"
        }
      ],
      "stateMutability": "view",
      "type": "function"
    },
    {
      "inputs": [
        {
          "internalType": "address",
          "name": "_user",
          "type": "address"
        }
      ],
      "name": "userFarmsLength",
      "outputs": [
        {
          "internalType": "uint256",
          "name": "",
          "type": "uint256"
        }
      ],
      "stateMutability": "view",
      "type": "function"
    },
    {
      "inputs": [
        {
          "internalType": "address",
          "name": "_user",
          "type": "address"
        }
      ],
      "name": "userLeftFarm",
      "outputs": [],
      "stateMutability": "nonpayable",
      "type": "function"
    }
  ],
  "bytecode": "0x608060405234801561001057600080fd5b5061001a3361001f565b61006f565b600080546001600160a01b038381166001600160a01b0319831681178455604051919092169283917f8be0079c531659141344cd1fd0a4f28419497f9722a3daafe3b4186f6b6457e09190a35050565b61086d8061007e6000396000f3fe608060405234801561001057600080fd5b50600436106101005760003560e01c80638da5cb5b11610097578063d9fceb0111610066578063d9fceb01146101f3578063edcd5d1714610206578063f2fde38b14610219578063f378d1d41461022c57600080fd5b80638da5cb5b146101b4578063947b8bbf146101c5578063af026842146101d8578063b12f1cd2146101eb57600080fd5b8063603bf074116100d3578063603bf0741461016e578063715018a61461018457806376cb25541461018e57806379cdf99b146101a157600080fd5b8063191da765146101055780631beea20f1461013557806330e7900d1461014857806349b9b4c51461015b575b600080fd5b61011861011336600461070d565b610234565b6040516001600160a01b0390911681526020015b60405180910390f35b61011861014336600461070d565b610247565b610118610156366004610742565b610254565b61011861016936600461070d565b61027e565b61017661028b565b60405190815260200161012c565b61018c61029c565b005b61018c61019c36600461076c565b6102b0565b61018c6101af36600461076c565b610307565b6000546001600160a01b0316610118565b61018c6101d3366004610787565b610350565b6101766101e636600461076c565b610378565b6101766103a0565b61018c61020136600461076c565b6103ac565b61018c61021436600461076c565b6103de565b61018c61022736600461076c565b610410565b610176610489565b6000610241600583610495565b92915050565b6000610241600383610495565b6001600160a01b03821660009081526007602052604081206102768184610495565b949350505050565b6000610241600183610495565b600061029760036104a1565b905090565b6102a46104ab565b6102ae6000610505565b565b6102bb600133610555565b6102e05760405162461bcd60e51b81526004016102d7906107c3565b60405180910390fd5b6001600160a01b03811660009081526007602052604090206103028133610577565b505050565b610312600133610555565b61032e5760405162461bcd60e51b81526004016102d7906107c3565b6001600160a01b0381166000908152600760205260409020610302813361058c565b6103586104ab565b80156103695761030260058361058c565b610302600583610577565b5050565b6001600160a01b0381166000908152600760205260408120610399816104a1565b9392505050565b600061029760056104a1565b6103b7600533610555565b6103d35760405162461bcd60e51b81526004016102d7906107c3565b61037460038261058c565b6103e9600533610555565b6104055760405162461bcd60e51b81526004016102d7906107c3565b61037460018261058c565b6104186104ab565b6001600160a01b03811661047d5760405162461bcd60e51b815260206004820152602660248201527f4f776e61626c653a206e6577206f776e657220697320746865207a65726f206160448201526564647265737360d01b60648201526084016102d7565b61048681610505565b50565b600061029760016104a1565b600061039983836105a1565b6000610241825490565b6000546001600160a01b031633146102ae5760405162461bcd60e51b815260206004820181905260248201527f4f776e61626c653a2063616c6c6572206973206e6f7420746865206f776e657260448201526064016102d7565b600080546001600160a01b038381166001600160a01b0319831681178455604051919092169283917f8be0079c531659141344cd1fd0a4f28419497f9722a3daafe3b4186f6b6457e09190a35050565b6001600160a01b03811660009081526001830160205260408120541515610399565b6000610399836001600160a01b0384166105cb565b6000610399836001600160a01b0384166106be565b60008260000182815481106105b8576105b86107e6565b9060005260206000200154905092915050565b600081815260018301602052604081205480156106b45760006105ef6001836107fc565b8554909150600090610603906001906107fc565b9050818114610668576000866000018281548110610623576106236107e6565b9060005260206000200154905080876000018481548110610646576106466107e6565b6000918252602080832090910192909255918252600188019052604090208390555b855486908061067957610679610821565b600190038181906000526020600020016000905590558560010160008681526020019081526020016000206000905560019350505050610241565b6000915050610241565b600081815260018301602052604081205461070557508154600181810184556000848152602080822090930184905584548482528286019093526040902091909155610241565b506000610241565b60006020828403121561071f57600080fd5b5035919050565b80356001600160a01b038116811461073d57600080fd5b919050565b6000806040838503121561075557600080fd5b61075e83610726565b946020939093013593505050565b60006020828403121561077e57600080fd5b61039982610726565b6000806040838503121561079a57600080fd5b6107a383610726565b9150602083013580151581146107b857600080fd5b809150509250929050565b6020808252600990820152682327a92124a22222a760b91b604082015260600190565b634e487b7160e01b600052603260045260246000fd5b60008282101561081c57634e487b7160e01b600052601160045260246000fd5b500390565b634e487b7160e01b600052603160045260246000fdfea26469706673582212203402fedd311f86399a37af4ad0e51a93896ab9e713b08cd6908982c0e347b80a64736f6c63430008090033",
  "linkReferences": {},
  "deployedLinkReferences": {}
}